{
  "_format": "hh-sol-artifact-1",
  "contractName": "AgentReputationRegistry",
  "sourceName": "contracts/AgentReputationRegistry.sol",
  "abi": [
    {
      "inputs": [
        {
          "internalType": "address",
          "name": "_identityRegistry",
          "type": "address"
        }
      ],
      "stateMutability": "nonpayable",
      "type": "constructor"
    },
    {
      "inputs": [],
      "name": "InvalidTokenId",
      "type": "error"
    },
    {
      "inputs": [
        {
          "internalType": "address",
          "name": "owner",
          "type": "address"
        }
      ],
      "name": "OwnableInvalidOwner",
      "type": "error"
    },
    {
      "inputs": [
        {
          "internalType": "address",
          "name": "account",
          "type": "address"
        }
      ],
      "name": "OwnableUnauthorizedAccount",
      "type": "error"
    },
    {
      "inputs": [],
      "name": "UnauthorizedReporter",
      "type": "error"
    },
    {
      "anonymous": false,
      "inputs": [
        {
          "indexed": true,
          "internalType": "address",
          "name": "previousOwner",
          "type": "address"
        },
        {
          "indexed": true,
          "internalType": "address",
          "name": "newOwner",
          "type": "address"
        }
      ],
      "name": "OwnershipTransferred",
      "type": "event"
    },
    {
      "anonymous": false,
      "inputs": [
        {
          "indexed": true,
          "internalType": "address",
          "name": "reporter",
          "type": "address"
        }
      ],
      "name": "ReporterAdded",
      "type": "event"
    },
    {
      "anonymous": false,
      "inputs": [
        {
          "indexed": true,
          "internalType": "address",
          "name": "reporter",
          "type": "address"
        }
      ],
      "name": "ReporterRemoved",
      "type": "event"
    },
    {
      "anonymous": false,
      "inputs": [
        {
          "indexed": true,
          "internalType": "uint256",
          "name": "tokenId",
          "type": "uint256"
        },
        {
          "indexed": false,
          "internalType": "bool",
          "name": "positive",
          "type": "bool"
        },
        {
          "indexed": false,
          "internalType": "string",
          "name": "reason",
          "type": "string"
        },
        {
          "indexed": true,
          "internalType": "address",
          "name": "reporter",
          "type": "address"
        }
      ],
      "name": "SignalPosted",
      "type": "event"
    },
    {
      "anonymous": false,
      "inputs": [
        {
          "indexed": true,
          "internalType": "uint256",
          "name": "tokenId",
          "type": "uint256"
        },
        {
          "indexed": false,
          "internalType": "uint256",
          "name": "amountUSDC6Dec",
          "type": "uint256"
        },
        {
          "indexed": true,
          "internalType": "address",
          "name": "reporter",
          "type": "address"
        }
      ],
      "name": "TransactionRecorded",
      "type": "event"
    },
    {
      "inputs": [
        {
          "internalType": "address",
          "name": "reporter",
          "type": "address"
        }
      ],
      "name": "addReporter",
      "outputs": [],
      "stateMutability": "nonpayable",
      "type": "function"
    },
    {
      "inputs": [
        {
          "internalType": "address",
          "name": "",
          "type": "address"
        }
      ],
      "name": "authorizedReporters",
      "outputs": [
        {
          "internalType": "bool",
          "name": "",
          "type": "bool"
        }
      ],
      "stateMutability": "view",
      "type": "function"
    },
    {
      "inputs": [
        {
          "internalType": "uint256",
          "name": "tokenId",
          "type": "uint256"
        }
      ],
      "name": "getReputation",
      "outputs": [
        {
          "components": [
            {
              "internalType": "uint256",
              "name": "positiveSignals",
              "type": "uint256"
            },
            {
              "internalType": "uint256",
              "name": "negativeSignals",
              "type": "uint256"
            },
            {
              "internalType": "uint256",
              "name": "txCount",
              "type": "uint256"
            },
            {
              "internalType": "uint256",
              "name": "totalVolume",
              "type": "uint256"
            },
            {
              "internalType": "uint256",
              "name": "trustScore",
              "type": "uint256"
            }
          ],
          "internalType": "struct IERC8004Reputation.Reputation",
          "name": "",
          "type": "tuple"
        }
      ],
      "stateMutability": "view",
      "type": "function"
    },
    {
      "inputs": [
        {
          "internalType": "uint256",
          "name": "tokenId",
          "type": "uint256"
        }
      ],
      "name": "getTrustScore",
      "outputs": [
        {
          "internalType": "uint256",
          "name": "",
          "type": "uint256"
        }
      ],
      "stateMutability": "view",
      "type": "function"
    },
    {
      "inputs": [],
      "name": "identityRegistry",
      "outputs": [
        {
          "internalType": "contract IAgentIdentityRegistry",
          "name": "",
          "type": "address"
        }
      ],
      "stateMutability": "view",
      "type": "function"
    },
    {
      "inputs": [
        {
          "internalType": "uint256",
          "name": "",
          "type": "uint256"
        }
      ],
      "name": "negativeSignals",
      "outputs": [
        {
          "internalType": "uint256",
          "name": "",
          "type": "uint256"
        }
      ],
      "stateMutability": "view",
      "type": "function"
    },
    {
      "inputs": [],
      "name": "owner",
      "outputs": [
        {
          "internalType": "address",
          "name": "",
          "type": "address"
        }
      ],
      "stateMutability": "view",
      "type": "function"
    },
    {
      "inputs": [
        {
          "internalType": "uint256",
          "name": "",
          "type": "uint256"
        }
      ],
      "name": "positiveSignals",
      "outputs": [
        {
          "internalType": "uint256",
          "name": "",
          "type": "uint256"
        }
      ],
      "stateMutability": "view",
      "type": "function"
    },
    {
      "inputs": [
        {
          "internalType": "uint256",
          "name": "tokenId",
          "type": "uint256"
        },
        {
          "internalType": "bool",
          "name": "positive",
          "type": "bool"
        },
        {
          "internalType": "string",
          "name": "reason",
          "type": "string"
        }
      ],
      "name": "postSignal",
      "outputs": [],
      "stateMutability": "nonpayable",
      "type": "function"
    },
    {
      "inputs": [
        {
          "internalType": "uint256",
          "name": "tokenId",
          "type": "uint256"
        },
        {
          "internalType": "uint256",
          "name": "amountUSDC6Dec",
          "type": "uint256"
        }
      ],
      "name": "recordTransaction",
      "outputs": [],
      "stateMutability": "nonpayable",
      "type": "function"
    },
    {
      "inputs": [
        {
          "internalType": "address",
          "name": "reporter",
          "type": "address"
        }
      ],
      "name": "removeReporter",
      "outputs": [],
      "stateMutability": "nonpayable",
      "type": "function"
    },
    {
      "inputs": [],
      "name": "renounceOwnership",
      "outputs": [],
      "stateMutability": "nonpayable",
      "type": "function"
    },
    {
      "inputs": [
        {
          "internalType": "uint256",
          "name": "",
          "type": "uint256"
        }
      ],
      "name": "totalVolume",
      "outputs": [
        {
          "internalType": "uint256",
          "name": "",
          "type": "uint256"
        }
      ],
      "stateMutability": "view",
      "type": "function"
    },
    {
      "inputs": [
        {
          "internalType": "address",
          "name": "newOwner",
          "type": "address"
        }
      ],
      "name": "transferOwnership",
      "outputs": [],
      "stateMutability": "nonpayable",
      "type": "function"
    },
    {
      "inputs": [
        {
          "internalType": "uint256",
          "name": "",
          "type": "uint256"
        }
      ],
      "name": "txCount",
      "outputs": [
        {
          "internalType": "uint256",
          "name": "",
          "type": "uint256"
        }
      ],
      "stateMutability": "view",
      "type": "function"
    }
  ],
  "bytecode": "0x608060405234801561001057600080fd5b50604051610b62380380610b6283398101604081905261002f916100d4565b338061005557604051631e4fbdf760e01b81526000600482015260240160405180910390fd5b61005e81610084565b50600180546001600160a01b0319166001600160a01b0392909216919091179055610104565b600080546001600160a01b038381166001600160a01b0319831681178455604051919092169283917f8be0079c531659141344cd1fd0a4f28419497f9722a3daafe3b4186f6b6457e09190a35050565b6000602082840312156100e657600080fd5b81516001600160a01b03811681146100fd57600080fd5b9392505050565b610a4f806101136000396000f3fe608060405234801561001057600080fd5b50600436106100f55760003560e01c8063715018a6116100975780638da5cb5b116100665780638da5cb5b14610283578063c34561af14610294578063dd8755f2146102a7578063f2fde38b146102ba57600080fd5b8063715018a6146101f357806383f3d448146101fb57806388240ee41461020e57806389370d8b1461022e57600080fd5b80633a41429a116100d35780633a41429a146101785780633dff95cb146101ab5780635de5c212146101c057806367ae5133146101d357600080fd5b8063134e18f4146100fa578063167126d91461012a57806322ce7f0514610158575b600080fd5b60015461010d906001600160a01b031681565b6040516001600160a01b0390911681526020015b60405180910390f35b61014a610138366004610844565b60056020526000908152604090205481565b604051908152602001610121565b61014a610166366004610844565b60036020526000908152604090205481565b61019b610186366004610872565b60026020526000908152604090205460ff1681565b6040519015158152602001610121565b6101be6101b9366004610896565b6102cd565b005b6101be6101ce366004610872565b610424565b61014a6101e1366004610844565b60066020526000908152604090205481565b6101be610475565b61014a610209366004610844565b610489565b61014a61021c366004610844565b60046020526000908152604090205481565b61024161023c366004610844565b61049a565b6040516101219190600060a082019050825182526020830151602083015260408301516040830152606083015160608301526080830151608083015292915050565b6000546001600160a01b031661010d565b6101be6102a23660046108b8565b61052c565b6101be6102b5366004610872565b61069c565b6101be6102c8366004610872565b6106f0565b3360009081526002602052604090205460ff166102fc57604051622ee57760e21b815260040160405180910390fd5b6001546040516331a9108f60e11b81526004810184905283916001600160a01b031690636352211e90602401602060405180830381865afa925050508015610361575060408051601f3d908101601f1916820190925261035e91810190610949565b60015b61037e576040516307ed98ed60e31b815260040160405180910390fd5b6001600160a01b0381166103a5576040516307ed98ed60e31b815260040160405180910390fd5b5060008381526005602052604081208054916103c08361097c565b9091555050600083815260066020526040812080548492906103e3908490610995565b9091555050604051828152339084907f7e84b37acdc0f55330daa9e8d48fda356c76c0f8178f48ab5afa88782337f0149060200160405180910390a3505050565b61042c610733565b6001600160a01b038116600081815260026020526040808220805460ff19169055517ff125aa5e6cb22c17ea0de4e1f86d2ff289ddd6a37e791b9ad29d0091cba06ac89190a250565b61047d610733565b6104876000610760565b565b6000610494826107b0565b92915050565b6104cc6040518060a0016040528060008152602001600081526020016000815260200160008152602001600081525090565b6040805160a081018252600084815260036020908152838220548352858252600481528382205481840152858252600581528382205483850152858252600690529190912054606082015260808101610524846107b0565b905292915050565b3360009081526002602052604090205460ff1661055b57604051622ee57760e21b815260040160405180910390fd5b6001546040516331a9108f60e11b81526004810186905285916001600160a01b031690636352211e90602401602060405180830381865afa9250505080156105c0575060408051601f3d908101601f191682019092526105bd91810190610949565b60015b6105dd576040516307ed98ed60e31b815260040160405180910390fd5b6001600160a01b038116610604576040516307ed98ed60e31b815260040160405180910390fd5b50831561062f5760008581526003602052604081208054916106258361097c565b919050555061064f565b60008581526004602052604081208054916106498361097c565b91905055505b336001600160a01b0316857f265b47f644c59e4212d90df171fd05fe2df89514d872db7e9d5535a6bf9c544286868660405161068d939291906109a8565b60405180910390a35050505050565b6106a4610733565b6001600160a01b038116600081815260026020526040808220805460ff19166001179055517f52824c4a4d431c73d6d24a91f775d722860111c6d30da30b0b21e062fb4c73659190a250565b6106f8610733565b6001600160a01b03811661072757604051631e4fbdf760e01b8152600060048201526024015b60405180910390fd5b61073081610760565b50565b6000546001600160a01b031633146104875760405163118cdaa760e01b815233600482015260240161071e565b600080546001600160a01b038381166001600160a01b0319831681178455604051919092169283917f8be0079c531659141344cd1fd0a4f28419497f9722a3daafe3b4186f6b6457e09190a35050565b6000818152600360209081526040808320546004909252822054826107d58284610995565b90506000816000036107e957506032610802565b816107f58560466109e0565b6107ff91906109f7565b90505b600086815260056020526040902054601e81111561081e5750601e5b600061082a8284610995565b90506064811115610839575060645b979650505050505050565b60006020828403121561085657600080fd5b5035919050565b6001600160a01b038116811461073057600080fd5b60006020828403121561088457600080fd5b813561088f8161085d565b9392505050565b600080604083850312156108a957600080fd5b50508035926020909101359150565b600080600080606085870312156108ce57600080fd5b84359350602085013580151581146108e557600080fd5b9250604085013567ffffffffffffffff81111561090157600080fd5b8501601f8101871361091257600080fd5b803567ffffffffffffffff81111561092957600080fd5b87602082840101111561093b57600080fd5b949793965060200194505050565b60006020828403121561095b57600080fd5b815161088f8161085d565b634e487b7160e01b600052601160045260246000fd5b60006001820161098e5761098e610966565b5060010190565b8082018082111561049457610494610966565b831515815260406020820152816040820152818360608301376000818301606090810191909152601f909201601f1916010192915050565b808202811582820484141761049457610494610966565b600082610a1457634e487b7160e01b600052601260045260246000fd5b50049056fea2646970667358221220f861c919d28ae4a80d924358659b31cdc0161dea6bd40e498f31cc0e72d3578c64736f6c634300081c0033",
  "linkReferences": {},
  "deployedLinkReferences": {}
}