{
  "_format": "hh-sol-artifact-1",
  "contractName": "DepositRouter",
  "sourceName": "contracts/DepositRouter.sol",
  "abi": [
    {
      "inputs": [
        {
          "internalType": "address",
          "name": "_collectionWallet",
          "type": "address"
        }
      ],
      "stateMutability": "nonpayable",
      "type": "constructor"
    },
    {
      "inputs": [],
      "name": "EthTransferFailed",
      "type": "error"
    },
    {
      "inputs": [
        {
          "internalType": "address",
          "name": "owner",
          "type": "address"
        }
      ],
      "name": "OwnableInvalidOwner",
      "type": "error"
    },
    {
      "inputs": [
        {
          "internalType": "address",
          "name": "account",
          "type": "address"
        }
      ],
      "name": "OwnableUnauthorizedAccount",
      "type": "error"
    },
    {
      "inputs": [],
      "name": "ReentrancyGuardReentrantCall",
      "type": "error"
    },
    {
      "inputs": [
        {
          "internalType": "address",
          "name": "token",
          "type": "address"
        }
      ],
      "name": "SafeERC20FailedOperation",
      "type": "error"
    },
    {
      "inputs": [],
      "name": "ZeroAddress",
      "type": "error"
    },
    {
      "inputs": [],
      "name": "ZeroAmount",
      "type": "error"
    },
    {
      "anonymous": false,
      "inputs": [
        {
          "indexed": true,
          "internalType": "address",
          "name": "oldWallet",
          "type": "address"
        },
        {
          "indexed": true,
          "internalType": "address",
          "name": "newWallet",
          "type": "address"
        }
      ],
      "name": "CollectionWalletUpdated",
      "type": "event"
    },
    {
      "anonymous": false,
      "inputs": [
        {
          "indexed": true,
          "internalType": "address",
          "name": "user",
          "type": "address"
        },
        {
          "indexed": true,
          "internalType": "address",
          "name": "holdingWallet",
          "type": "address"
        },
        {
          "indexed": true,
          "internalType": "address",
          "name": "token",
          "type": "address"
        },
        {
          "indexed": false,
          "internalType": "uint256",
          "name": "amount",
          "type": "uint256"
        },
        {
          "indexed": false,
          "internalType": "uint256",
          "name": "ethAmount",
          "type": "uint256"
        }
      ],
      "name": "DepositWithGas",
      "type": "event"
    },
    {
      "anonymous": false,
      "inputs": [
        {
          "indexed": true,
          "internalType": "address",
          "name": "previousOwner",
          "type": "address"
        },
        {
          "indexed": true,
          "internalType": "address",
          "name": "newOwner",
          "type": "address"
        }
      ],
      "name": "OwnershipTransferred",
      "type": "event"
    },
    {
      "inputs": [],
      "name": "collectionWallet",
      "outputs": [
        {
          "internalType": "address",
          "name": "",
          "type": "address"
        }
      ],
      "stateMutability": "view",
      "type": "function"
    },
    {
      "inputs": [
        {
          "internalType": "address",
          "name": "token",
          "type": "address"
        },
        {
          "internalType": "address",
          "name": "holdingWallet",
          "type": "address"
        },
        {
          "internalType": "uint256",
          "name": "amount",
          "type": "uint256"
        }
      ],
      "name": "depositWithGas",
      "outputs": [],
      "stateMutability": "payable",
      "type": "function"
    },
    {
      "inputs": [],
      "name": "owner",
      "outputs": [
        {
          "internalType": "address",
          "name": "",
          "type": "address"
        }
      ],
      "stateMutability": "view",
      "type": "function"
    },
    {
      "inputs": [
        {
          "internalType": "address",
          "name": "token",
          "type": "address"
        },
        {
          "internalType": "uint256",
          "name": "amount",
          "type": "uint256"
        }
      ],
      "name": "recoverERC20",
      "outputs": [],
      "stateMutability": "nonpayable",
      "type": "function"
    },
    {
      "inputs": [],
      "name": "recoverETH",
      "outputs": [],
      "stateMutability": "nonpayable",
      "type": "function"
    },
    {
      "inputs": [],
      "name": "renounceOwnership",
      "outputs": [],
      "stateMutability": "nonpayable",
      "type": "function"
    },
    {
      "inputs": [
        {
          "internalType": "address",
          "name": "_collectionWallet",
          "type": "address"
        }
      ],
      "name": "setCollectionWallet",
      "outputs": [],
      "stateMutability": "nonpayable",
      "type": "function"
    },
    {
      "inputs": [
        {
          "internalType": "address",
          "name": "newOwner",
          "type": "address"
        }
      ],
      "name": "transferOwnership",
      "outputs": [],
      "stateMutability": "nonpayable",
      "type": "function"
    }
  ],
  "bytecode": "0x608060405234801561001057600080fd5b5060405161080438038061080483398101604081905261002f91610102565b6001600055338061005a57604051631e4fbdf760e01b81526000600482015260240160405180910390fd5b610063816100b0565b506001600160a01b03811661008b5760405163d92e233d60e01b815260040160405180910390fd5b600280546001600160a01b0319166001600160a01b0392909216919091179055610132565b600180546001600160a01b038381166001600160a01b0319831681179093556040519116919082907f8be0079c531659141344cd1fd0a4f28419497f9722a3daafe3b4186f6b6457e090600090a35050565b60006020828403121561011457600080fd5b81516001600160a01b038116811461012b57600080fd5b9392505050565b6106c3806101416000396000f3fe60806040526004361061007b5760003560e01c80638980f11f1161004e5780638980f11f146100fb5780638da5cb5b1461011b578063ee78b83314610139578063f2fde38b1461015957600080fd5b80630614117a14610080578063715018a61461009757806378b9f1a9146100ac578063857774d5146100e8575b600080fd5b34801561008c57600080fd5b50610095610179565b005b3480156100a357600080fd5b506100956101ed565b3480156100b857600080fd5b506002546100cc906001600160a01b031681565b6040516001600160a01b03909116815260200160405180910390f35b6100956100f6366004610604565b610201565b34801561010757600080fd5b50610095610116366004610641565b61034f565b34801561012757600080fd5b506001546001600160a01b03166100cc565b34801561014557600080fd5b5061009561015436600461066b565b61036f565b34801561016557600080fd5b5061009561017436600461066b565b6103f0565b610181610430565b604051600090339047908381818185875af1925050503d80600081146101c3576040519150601f19603f3d011682016040523d82523d6000602084013e6101c8565b606091505b50509050806101ea57604051630db2c7f160e31b815260040160405180910390fd5b50565b6101f5610430565b6101ff600061045d565b565b6102096104af565b6001600160a01b038316158061022657506001600160a01b038216155b156102445760405163d92e233d60e01b815260040160405180910390fd5b8060000361026557604051631f2a200560e01b815260040160405180910390fd5b61027a6001600160a01b0384163384846104d9565b34156102f6576002546040516000916001600160a01b03169034908381818185875af1925050503d80600081146102cd576040519150601f19603f3d011682016040523d82523d6000602084013e6102d2565b606091505b50509050806102f457604051630db2c7f160e31b815260040160405180910390fd5b505b604080518281523460208201526001600160a01b03808616929085169133917f170a831e09052a7967f4fb382b5859ffc3e560348a874e2cf13dd8ec5e51446e910160405180910390a461034a6001600055565b505050565b610357610430565b61036b6001600160a01b0383163383610546565b5050565b610377610430565b6001600160a01b03811661039e5760405163d92e233d60e01b815260040160405180910390fd5b600280546001600160a01b038381166001600160a01b0319831681179093556040519116919082907ffb132310c171623330399534086cadb15427ad76a9fb9e5741122e4cf7990d0c90600090a35050565b6103f8610430565b6001600160a01b03811661042757604051631e4fbdf760e01b8152600060048201526024015b60405180910390fd5b6101ea8161045d565b6001546001600160a01b031633146101ff5760405163118cdaa760e01b815233600482015260240161041e565b600180546001600160a01b038381166001600160a01b0319831681179093556040519116919082907f8be0079c531659141344cd1fd0a4f28419497f9722a3daafe3b4186f6b6457e090600090a35050565b6002600054036104d257604051633ee5aeb560e01b815260040160405180910390fd5b6002600055565b6040516001600160a01b0384811660248301528381166044830152606482018390526105409186918216906323b872dd906084015b604051602081830303815290604052915060e01b6020820180516001600160e01b038381831617835250505050610577565b50505050565b6040516001600160a01b0383811660248301526044820183905261034a91859182169063a9059cbb9060640161050e565b600080602060008451602086016000885af18061059a576040513d6000823e3d81fd5b50506000513d915081156105b25780600114156105bf565b6001600160a01b0384163b155b1561054057604051635274afe760e01b81526001600160a01b038516600482015260240161041e565b80356001600160a01b03811681146105ff57600080fd5b919050565b60008060006060848603121561061957600080fd5b610622846105e8565b9250610630602085016105e8565b929592945050506040919091013590565b6000806040838503121561065457600080fd5b61065d836105e8565b946020939093013593505050565b60006020828403121561067d57600080fd5b610686826105e8565b939250505056fea2646970667358221220a85692bf07b37ccf6b7b58ed69e39e1ae28a0cf6f8d490a789070af87f2dd51c64736f6c634300081c0033",
  "linkReferences": {},
  "deployedLinkReferences": {}
}