{
  "_format": "hh-sol-artifact-1",
  "contractName": "SMSEscrow",
  "sourceName": "contracts/SMSEscrow.sol",
  "abi": [
    {
      "inputs": [
        {
          "internalType": "address",
          "name": "usdc",
          "type": "address"
        },
        {
          "internalType": "address",
          "name": "pool",
          "type": "address"
        }
      ],
      "stateMutability": "nonpayable",
      "type": "constructor"
    },
    {
      "inputs": [],
      "name": "AlreadyExists",
      "type": "error"
    },
    {
      "inputs": [],
      "name": "AlreadyExpired",
      "type": "error"
    },
    {
      "inputs": [],
      "name": "ECDSAInvalidSignature",
      "type": "error"
    },
    {
      "inputs": [
        {
          "internalType": "uint256",
          "name": "length",
          "type": "uint256"
        }
      ],
      "name": "ECDSAInvalidSignatureLength",
      "type": "error"
    },
    {
      "inputs": [
        {
          "internalType": "bytes32",
          "name": "s",
          "type": "bytes32"
        }
      ],
      "name": "ECDSAInvalidSignatureS",
      "type": "error"
    },
    {
      "inputs": [],
      "name": "InvalidSignature",
      "type": "error"
    },
    {
      "inputs": [],
      "name": "NotPending",
      "type": "error"
    },
    {
      "inputs": [],
      "name": "NotYetExpired",
      "type": "error"
    },
    {
      "inputs": [],
      "name": "PoolRelayerNotConfigured",
      "type": "error"
    },
    {
      "inputs": [],
      "name": "ReentrancyGuardReentrantCall",
      "type": "error"
    },
    {
      "inputs": [
        {
          "internalType": "address",
          "name": "token",
          "type": "address"
        }
      ],
      "name": "SafeERC20FailedOperation",
      "type": "error"
    },
    {
      "inputs": [
        {
          "internalType": "uint256",
          "name": "value",
          "type": "uint256"
        },
        {
          "internalType": "uint256",
          "name": "length",
          "type": "uint256"
        }
      ],
      "name": "StringsInsufficientHexLength",
      "type": "error"
    },
    {
      "inputs": [],
      "name": "ZeroAmount",
      "type": "error"
    },
    {
      "inputs": [],
      "name": "ZeroToken",
      "type": "error"
    },
    {
      "anonymous": false,
      "inputs": [
        {
          "indexed": true,
          "internalType": "bytes32",
          "name": "claimToken",
          "type": "bytes32"
        },
        {
          "indexed": true,
          "internalType": "address",
          "name": "recipient",
          "type": "address"
        },
        {
          "indexed": false,
          "internalType": "uint96",
          "name": "grossAmount",
          "type": "uint96"
        },
        {
          "indexed": false,
          "internalType": "uint256",
          "name": "nonce",
          "type": "uint256"
        }
      ],
      "name": "Claimed",
      "type": "event"
    },
    {
      "anonymous": false,
      "inputs": [
        {
          "indexed": true,
          "internalType": "bytes32",
          "name": "claimToken",
          "type": "bytes32"
        },
        {
          "indexed": true,
          "internalType": "address",
          "name": "sender",
          "type": "address"
        },
        {
          "indexed": false,
          "internalType": "uint96",
          "name": "amount",
          "type": "uint96"
        },
        {
          "indexed": false,
          "internalType": "uint64",
          "name": "expiresAt",
          "type": "uint64"
        }
      ],
      "name": "Deposited",
      "type": "event"
    },
    {
      "anonymous": false,
      "inputs": [
        {
          "indexed": true,
          "internalType": "bytes32",
          "name": "claimToken",
          "type": "bytes32"
        },
        {
          "indexed": true,
          "internalType": "address",
          "name": "sender",
          "type": "address"
        },
        {
          "indexed": false,
          "internalType": "uint96",
          "name": "amount",
          "type": "uint96"
        }
      ],
      "name": "Refunded",
      "type": "event"
    },
    {
      "inputs": [],
      "name": "EXPIRY_SECONDS",
      "outputs": [
        {
          "internalType": "uint64",
          "name": "",
          "type": "uint64"
        }
      ],
      "stateMutability": "view",
      "type": "function"
    },
    {
      "inputs": [],
      "name": "POOL",
      "outputs": [
        {
          "internalType": "contract IX402PrivacyPool",
          "name": "",
          "type": "address"
        }
      ],
      "stateMutability": "view",
      "type": "function"
    },
    {
      "inputs": [],
      "name": "USDC",
      "outputs": [
        {
          "internalType": "contract IERC20",
          "name": "",
          "type": "address"
        }
      ],
      "stateMutability": "view",
      "type": "function"
    },
    {
      "inputs": [
        {
          "internalType": "bytes32",
          "name": "claimToken",
          "type": "bytes32"
        },
        {
          "internalType": "bytes",
          "name": "recipientSig",
          "type": "bytes"
        }
      ],
      "name": "claim",
      "outputs": [],
      "stateMutability": "nonpayable",
      "type": "function"
    },
    {
      "inputs": [
        {
          "internalType": "bytes32",
          "name": "claimToken",
          "type": "bytes32"
        },
        {
          "internalType": "address",
          "name": "recipient",
          "type": "address"
        }
      ],
      "name": "claimMessage",
      "outputs": [
        {
          "internalType": "string",
          "name": "",
          "type": "string"
        }
      ],
      "stateMutability": "pure",
      "type": "function"
    },
    {
      "inputs": [
        {
          "internalType": "bytes32",
          "name": "claimToken",
          "type": "bytes32"
        },
        {
          "internalType": "uint96",
          "name": "amount",
          "type": "uint96"
        }
      ],
      "name": "depositFor",
      "outputs": [],
      "stateMutability": "nonpayable",
      "type": "function"
    },
    {
      "inputs": [
        {
          "internalType": "bytes32",
          "name": "",
          "type": "bytes32"
        }
      ],
      "name": "escrows",
      "outputs": [
        {
          "internalType": "address",
          "name": "sender",
          "type": "address"
        },
        {
          "internalType": "uint96",
          "name": "amount",
          "type": "uint96"
        },
        {
          "internalType": "uint64",
          "name": "expiresAt",
          "type": "uint64"
        },
        {
          "internalType": "enum SMSEscrow.Status",
          "name": "status",
          "type": "uint8"
        },
        {
          "internalType": "address",
          "name": "recipient",
          "type": "address"
        }
      ],
      "stateMutability": "view",
      "type": "function"
    },
    {
      "inputs": [
        {
          "internalType": "bytes32",
          "name": "claimToken",
          "type": "bytes32"
        }
      ],
      "name": "getEscrow",
      "outputs": [
        {
          "internalType": "address",
          "name": "sender",
          "type": "address"
        },
        {
          "internalType": "uint96",
          "name": "amount",
          "type": "uint96"
        },
        {
          "internalType": "uint64",
          "name": "expiresAt",
          "type": "uint64"
        },
        {
          "internalType": "enum SMSEscrow.Status",
          "name": "status",
          "type": "uint8"
        },
        {
          "internalType": "address",
          "name": "recipient",
          "type": "address"
        }
      ],
      "stateMutability": "view",
      "type": "function"
    },
    {
      "inputs": [],
      "name": "isPoolRelayer",
      "outputs": [
        {
          "internalType": "bool",
          "name": "",
          "type": "bool"
        }
      ],
      "stateMutability": "view",
      "type": "function"
    },
    {
      "inputs": [
        {
          "internalType": "bytes32",
          "name": "claimToken",
          "type": "bytes32"
        }
      ],
      "name": "refund",
      "outputs": [],
      "stateMutability": "nonpayable",
      "type": "function"
    }
  ],
  "bytecode": "0x60c060405234801561001057600080fd5b506040516118c13803806118c183398101604081905261002f916100a2565b60016000556001600160a01b038216158061005157506001600160a01b038116155b1561006f5760405163ad1991f560e01b815260040160405180910390fd5b6001600160a01b039182166080521660a0526100d5565b80516001600160a01b038116811461009d57600080fd5b919050565b600080604083850312156100b557600080fd5b6100be83610086565b91506100cc60208401610086565b90509250929050565b60805160a05161177361014e6000396000818161014c0152818161061a015281816107f1015281816108f10152818161096401528181610a7801528181610aed0152610b8701526000818161018b0152818161030801528181610582015281816108cf0152818161092d0152610a2101526117736000f3fe608060405234801561001057600080fd5b506004361061009e5760003560e01c80639984fd19116100665780639984fd19146101ad578063a67087d3146101c5578063e8b0ad21146101e7578063f023b81114610207578063f03310241461026b57600080fd5b80632d83549c146100a357806369d9fcea1461011f5780637249fbb6146101345780637535d2461461014757806389a3027114610186575b600080fd5b6101056100b136600461139a565b600160208190526000918252604090912080549101546001600160a01b0380831692600160a01b90046001600160601b0316916001600160401b03811691600160401b820460ff1691600160481b90041685565b6040516101169594939291906113c9565b60405180910390f35b61013261012d366004611436565b61027e565b005b61013261014236600461139a565b6104b8565b61016e7f000000000000000000000000000000000000000000000000000000000000000081565b6040516001600160a01b039091168152602001610116565b61016e7f000000000000000000000000000000000000000000000000000000000000000081565b6101b5610602565b6040519015158152602001610116565b6101cf6201518081565b6040516001600160401b039091168152602001610116565b6101fa6101f5366004611472565b610692565b60405161011691906114c7565b61010561021536600461139a565b600090815260016020819052604090912080549101546001600160a01b0380831693600160a01b9093046001600160601b0316926001600160401b03831692600160401b810460ff1692600160481b9091041690565b6101326102793660046114fa565b6106dc565b610286610c46565b806001600160601b03166000036102b057604051631f2a200560e01b815260040160405180910390fd5b600082815260016020819052604082200154600160401b900460ff1660038111156102dd576102dd6113b3565b146102fb5760405163119b4fd360e11b815260040160405180910390fd5b6103396001600160a01b037f00000000000000000000000000000000000000000000000000000000000000001633306001600160601b038516610c70565b6000610348620151804261158c565b6040805160a0810182523381526001600160601b03851660208201526001600160401b0383169181019190915290915060608101600181526000602091820181905285815260018083526040918290208451938501516001600160601b0316600160a01b026001600160a01b03949094169390931783559083015190820180546001600160401b0390921667ffffffffffffffff1983168117825560608501519268ffffffffffffffffff191617600160401b83600381111561040d5761040d6113b3565b021790555060809190910151600190910180546001600160a01b03909216600160481b027fffffff0000000000000000000000000000000000000000ffffffffffffffffff909216919091179055604080516001600160601b03841681526001600160401b0383166020820152339185917f6fd8df7cae6fad5d89edef80394273e5e06dae8dc63c36954ab7df7a6d333ef0910160405180910390a3506104b46001600055565b5050565b6104c0610c46565b6000818152600160208190526040909120906001820154600160401b900460ff1660038111156104f2576104f26113b3565b1461051057604051633ee3282d60e11b815260040160405180910390fd5b60018101546001600160401b031642101561053e57604051632cc8960360e11b815260040160405180910390fd5b805460018201805468ff00000000000000001916680300000000000000001790556001600160601b03600160a01b820416906001600160a01b03908116906105a9907f0000000000000000000000000000000000000000000000000000000000000000168284610cdd565b6040516001600160601b03831681526001600160a01b0382169085907ff6cd5966a3bbff16e2cadf120fa194ce222e02cad89bd1fa846943a98576ef539060200160405180910390a35050506105ff6001600055565b50565b604051630a83aaa960e31b81523060048201526000907f00000000000000000000000000000000000000000000000000000000000000006001600160a01b03169063541d554890602401602060405180830381865afa158015610669573d6000803e3d6000fd5b505050506040513d601f19601f8201168201806040525081019061068d91906115ab565b905090565b606061069f836020610d0e565b6106b3836001600160a01b03166014610d0e565b6040516020016106c49291906115d4565b60405160208183030381529060405290505b92915050565b6106e4610c46565b6000838152600160208190526040909120906001820154600160401b900460ff166003811115610716576107166113b3565b1461073457604051633ee3282d60e11b815260040160405180910390fd5b60018101546001600160401b031642106107615760405163506b27c560e11b815260040160405180910390fd5b600061076d8533610e92565b905060006107b18286868080601f016020809104026020016040519081016040528093929190818152602001838380828437600092019190915250610eaa92505050565b90506001600160a01b03811633146107dc57604051638baa579f60e01b815260040160405180910390fd5b604051630a83aaa960e31b81523060048201527f00000000000000000000000000000000000000000000000000000000000000006001600160a01b03169063541d554890602401602060405180830381865afa158015610840573d6000803e3d6000fd5b505050506040513d601f19601f8201168201806040525081019061086491906115ab565b610881576040516331a6b7db60e01b815260040160405180910390fd5b82546001840180546802000000000000000068010000000000000000600160e81b031990911633600160481b0217179055600160a01b90046001600160601b03166109166001600160a01b037f0000000000000000000000000000000000000000000000000000000000000000167f000000000000000000000000000000000000000000000000000000000000000083610ed4565b6040516311f9fbc960e21b81526001600160a01b037f0000000000000000000000000000000000000000000000000000000000000000811660048301526001600160601b03831660248301527f000000000000000000000000000000000000000000000000000000000000000016906347e7ef2490604401600060405180830381600087803b1580156109a857600080fd5b505af11580156109bc573d6000803e3d6000fd5b50505050600087426040516020016109de929190918252602082015260400190565b60408051601f1981840301815290829052805160209091012063fd44050f60e01b8252600482018190526001600160601b03841660248301526001600160a01b037f00000000000000000000000000000000000000000000000000000000000000008116604484015260c06064840152600060c4840181905260e0608485015260e4840181905261010060a48501526101048401529092507f0000000000000000000000000000000000000000000000000000000000000000169063fd44050f9061012401600060405180830381600087803b158015610abd57600080fd5b505af1158015610ad1573d6000803e3d6000fd5b5050604051632249bac360e11b815260048101849052600092507f00000000000000000000000000000000000000000000000000000000000000006001600160a01b03169150634493758690602401602060405180830381865afa158015610b3d573d6000803e3d6000fd5b505050506040513d601f19601f82011682018060405250810190610b61919061165c565b6040516316c79f0b60e11b815260048101829052336024820152600060448201529091507f00000000000000000000000000000000000000000000000000000000000000006001600160a01b031690632d8f3e1690606401600060405180830381600087803b158015610bd357600080fd5b505af1158015610be7573d6000803e3d6000fd5b5050604080516001600160601b0387168152602081018690523393508c92507f6ad394ab85757c6344d2a57d3040924e55b6433177614e68857ff1dde2882f50910160405180910390a3505050505050610c416001600055565b505050565b600260005403610c6957604051633ee5aeb560e01b815260040160405180910390fd5b6002600055565b6040516001600160a01b038481166024830152838116604483015260648201839052610cd79186918216906323b872dd906084015b604051602081830303815290604052915060e01b6020820180516001600160e01b038381831617835250505050610f60565b50505050565b6040516001600160a01b03838116602483015260448201839052610c4191859182169063a9059cbb90606401610ca5565b6060826000610d1e846002611675565b610d2990600261168c565b6001600160401b03811115610d4057610d4061169f565b6040519080825280601f01601f191660200182016040528015610d6a576020820181803683370190505b509050600360fc1b81600081518110610d8557610d856116b5565b60200101906001600160f81b031916908160001a905350600f60fb1b81600181518110610db457610db46116b5565b60200101906001600160f81b031916908160001a9053506000610dd8856002611675565b610de390600161168c565b90505b6001811115610e5b576f181899199a1a9b1b9c1cb0b131b232b360811b83600f1660108110610e1757610e176116b5565b1a60f81b828281518110610e2d57610e2d6116b5565b60200101906001600160f81b031916908160001a90535060049290921c91610e54816116cb565b9050610de6565b508115610e8a5760405163e22e27eb60e01b815260048101869052602481018590526044015b60405180910390fd5b949350505050565b600080610e9f8484610692565b9050610e8a81610fd1565b600080600080610eba868661100c565b925092509250610eca8282611059565b5090949350505050565b604080516001600160a01b038416602482015260448082018490528251808303909101815260649091019091526020810180516001600160e01b031663095ea7b360e01b179052610f258482611112565b610cd7576040516001600160a01b03848116602483015260006044830152610f5a91869182169063095ea7b390606401610ca5565b610cd784825b600080602060008451602086016000885af180610f83576040513d6000823e3d81fd5b50506000513d91508115610f9b578060011415610fa8565b6001600160a01b0384163b155b15610cd757604051635274afe760e01b81526001600160a01b0385166004820152602401610e81565b6000610fdd8251611161565b82604051602001610fef9291906116e2565b604051602081830303815290604052805190602001209050919050565b600080600083516041036110465760208401516040850151606086015160001a611038888285856111f3565b955095509550505050611052565b50508151600091506002905b9250925092565b600082600381111561106d5761106d6113b3565b03611076575050565b600182600381111561108a5761108a6113b3565b036110a85760405163f645eedf60e01b815260040160405180910390fd5b60028260038111156110bc576110bc6113b3565b036110dd5760405163fce698f760e01b815260048101829052602401610e81565b60038260038111156110f1576110f16113b3565b036104b4576040516335e2f38360e21b815260048101829052602401610e81565b6000806000806020600086516020880160008a5af192503d91506000519050828015611157575081156111485780600114611157565b6000866001600160a01b03163b115b9695505050505050565b6060600061116e836112c2565b60010190506000816001600160401b0381111561118d5761118d61169f565b6040519080825280601f01601f1916602001820160405280156111b7576020820181803683370190505b5090508181016020015b600019016f181899199a1a9b1b9c1cb0b131b232b360811b600a86061a8153600a85049450846111c157509392505050565b600080807f7fffffffffffffffffffffffffffffff5d576e7357a4501ddfe92f46681b20a084111561122e57506000915060039050826112b8565b604080516000808252602082018084528a905260ff891692820192909252606081018790526080810186905260019060a0016020604051602081039080840390855afa158015611282573d6000803e3d6000fd5b5050604051601f1901519150506001600160a01b0381166112ae575060009250600191508290506112b8565b9250600091508190505b9450945094915050565b60008072184f03e93ff9f4daa797ed6e38ed64bf6a1f0160401b83106113015772184f03e93ff9f4daa797ed6e38ed64bf6a1f0160401b830492506040015b6d04ee2d6d415b85acef8100000000831061132d576d04ee2d6d415b85acef8100000000830492506020015b662386f26fc10000831061134b57662386f26fc10000830492506010015b6305f5e1008310611363576305f5e100830492506008015b612710831061137757612710830492506004015b60648310611389576064830492506002015b600a83106106d65760010192915050565b6000602082840312156113ac57600080fd5b5035919050565b634e487b7160e01b600052602160045260246000fd5b6001600160a01b03861681526001600160601b03851660208201526001600160401b038416604082015260a081016004841061141557634e487b7160e01b600052602160045260246000fd5b60608201939093526001600160a01b03919091166080909101529392505050565b6000806040838503121561144957600080fd5b8235915060208301356001600160601b038116811461146757600080fd5b809150509250929050565b6000806040838503121561148557600080fd5b8235915060208301356001600160a01b038116811461146757600080fd5b60005b838110156114be5781810151838201526020016114a6565b50506000910152565b60208152600082518060208401526114e68160408501602087016114a3565b601f01601f19169190910160400192915050565b60008060006040848603121561150f57600080fd5b8335925060208401356001600160401b0381111561152c57600080fd5b8401601f8101861361153d57600080fd5b80356001600160401b0381111561155357600080fd5b86602082840101111561156557600080fd5b939660209190910195509293505050565b634e487b7160e01b600052601160045260246000fd5b6001600160401b0381811683821601908111156106d6576106d6611576565b6000602082840312156115bd57600080fd5b815180151581146115cd57600080fd5b9392505050565b752120a9a2aaa9a2281029a6a99021b630b4b6903b188560511b81526b021b630b4b6aa37b5b2b71d160a51b6016820152825160009061161b8160228501602088016114a3565b600560f91b6022918401918201526a02932b1b4b834b2b73a1d160ad1b6023820152835161165081602e8401602088016114a3565b01602e01949350505050565b60006020828403121561166e57600080fd5b5051919050565b80820281158282048414176106d6576106d6611576565b808201808211156106d6576106d6611576565b634e487b7160e01b600052604160045260246000fd5b634e487b7160e01b600052603260045260246000fd5b6000816116da576116da611576565b506000190190565b7f19457468657265756d205369676e6564204d6573736167653a0a00000000000081526000835161171a81601a8501602088016114a3565b83519083019061173181601a8401602088016114a3565b01601a0194935050505056fea26469706673582212207bf2ef0da1ee3ebed4b7791c51bdff3465df000ca1f44acd34ba3f6a78bccd2864736f6c634300081c0033",
  "linkReferences": {},
  "deployedLinkReferences": {}
}