{
  "_format": "hh-sol-artifact-1",
  "contractName": "AgentIdentityRegistry",
  "sourceName": "contracts/AgentIdentityRegistry.sol",
  "abi": [
    {
      "inputs": [],
      "stateMutability": "nonpayable",
      "type": "constructor"
    },
    {
      "inputs": [],
      "name": "AlreadyRegistered",
      "type": "error"
    },
    {
      "inputs": [],
      "name": "AlreadyRevoked",
      "type": "error"
    },
    {
      "inputs": [],
      "name": "AlreadyVerified",
      "type": "error"
    },
    {
      "inputs": [
        {
          "internalType": "address",
          "name": "sender",
          "type": "address"
        },
        {
          "internalType": "uint256",
          "name": "tokenId",
          "type": "uint256"
        },
        {
          "internalType": "address",
          "name": "owner",
          "type": "address"
        }
      ],
      "name": "ERC721IncorrectOwner",
      "type": "error"
    },
    {
      "inputs": [
        {
          "internalType": "address",
          "name": "operator",
          "type": "address"
        },
        {
          "internalType": "uint256",
          "name": "tokenId",
          "type": "uint256"
        }
      ],
      "name": "ERC721InsufficientApproval",
      "type": "error"
    },
    {
      "inputs": [
        {
          "internalType": "address",
          "name": "approver",
          "type": "address"
        }
      ],
      "name": "ERC721InvalidApprover",
      "type": "error"
    },
    {
      "inputs": [
        {
          "internalType": "address",
          "name": "operator",
          "type": "address"
        }
      ],
      "name": "ERC721InvalidOperator",
      "type": "error"
    },
    {
      "inputs": [
        {
          "internalType": "address",
          "name": "owner",
          "type": "address"
        }
      ],
      "name": "ERC721InvalidOwner",
      "type": "error"
    },
    {
      "inputs": [
        {
          "internalType": "address",
          "name": "receiver",
          "type": "address"
        }
      ],
      "name": "ERC721InvalidReceiver",
      "type": "error"
    },
    {
      "inputs": [
        {
          "internalType": "address",
          "name": "sender",
          "type": "address"
        }
      ],
      "name": "ERC721InvalidSender",
      "type": "error"
    },
    {
      "inputs": [
        {
          "internalType": "uint256",
          "name": "tokenId",
          "type": "uint256"
        }
      ],
      "name": "ERC721NonexistentToken",
      "type": "error"
    },
    {
      "inputs": [],
      "name": "NotRegistered",
      "type": "error"
    },
    {
      "inputs": [],
      "name": "NotTokenOwner",
      "type": "error"
    },
    {
      "inputs": [
        {
          "internalType": "address",
          "name": "owner",
          "type": "address"
        }
      ],
      "name": "OwnableInvalidOwner",
      "type": "error"
    },
    {
      "inputs": [
        {
          "internalType": "address",
          "name": "account",
          "type": "address"
        }
      ],
      "name": "OwnableUnauthorizedAccount",
      "type": "error"
    },
    {
      "anonymous": false,
      "inputs": [
        {
          "indexed": true,
          "internalType": "uint256",
          "name": "tokenId",
          "type": "uint256"
        },
        {
          "indexed": true,
          "internalType": "address",
          "name": "operator",
          "type": "address"
        },
        {
          "indexed": false,
          "internalType": "string",
          "name": "metadataURI",
          "type": "string"
        }
      ],
      "name": "AgentRegistered",
      "type": "event"
    },
    {
      "anonymous": false,
      "inputs": [
        {
          "indexed": true,
          "internalType": "uint256",
          "name": "tokenId",
          "type": "uint256"
        }
      ],
      "name": "AgentRevoked",
      "type": "event"
    },
    {
      "anonymous": false,
      "inputs": [
        {
          "indexed": true,
          "internalType": "uint256",
          "name": "tokenId",
          "type": "uint256"
        }
      ],
      "name": "AgentVerified",
      "type": "event"
    },
    {
      "anonymous": false,
      "inputs": [
        {
          "indexed": true,
          "internalType": "address",
          "name": "owner",
          "type": "address"
        },
        {
          "indexed": true,
          "internalType": "address",
          "name": "approved",
          "type": "address"
        },
        {
          "indexed": true,
          "internalType": "uint256",
          "name": "tokenId",
          "type": "uint256"
        }
      ],
      "name": "Approval",
      "type": "event"
    },
    {
      "anonymous": false,
      "inputs": [
        {
          "indexed": true,
          "internalType": "address",
          "name": "owner",
          "type": "address"
        },
        {
          "indexed": true,
          "internalType": "address",
          "name": "operator",
          "type": "address"
        },
        {
          "indexed": false,
          "internalType": "bool",
          "name": "approved",
          "type": "bool"
        }
      ],
      "name": "ApprovalForAll",
      "type": "event"
    },
    {
      "anonymous": false,
      "inputs": [
        {
          "indexed": false,
          "internalType": "uint256",
          "name": "_fromTokenId",
          "type": "uint256"
        },
        {
          "indexed": false,
          "internalType": "uint256",
          "name": "_toTokenId",
          "type": "uint256"
        }
      ],
      "name": "BatchMetadataUpdate",
      "type": "event"
    },
    {
      "anonymous": false,
      "inputs": [
        {
          "indexed": false,
          "internalType": "uint256",
          "name": "_tokenId",
          "type": "uint256"
        }
      ],
      "name": "MetadataUpdate",
      "type": "event"
    },
    {
      "anonymous": false,
      "inputs": [
        {
          "indexed": true,
          "internalType": "uint256",
          "name": "tokenId",
          "type": "uint256"
        },
        {
          "indexed": false,
          "internalType": "string",
          "name": "metadataURI",
          "type": "string"
        }
      ],
      "name": "MetadataUpdated",
      "type": "event"
    },
    {
      "anonymous": false,
      "inputs": [
        {
          "indexed": true,
          "internalType": "address",
          "name": "previousOwner",
          "type": "address"
        },
        {
          "indexed": true,
          "internalType": "address",
          "name": "newOwner",
          "type": "address"
        }
      ],
      "name": "OwnershipTransferred",
      "type": "event"
    },
    {
      "anonymous": false,
      "inputs": [
        {
          "indexed": true,
          "internalType": "address",
          "name": "from",
          "type": "address"
        },
        {
          "indexed": true,
          "internalType": "address",
          "name": "to",
          "type": "address"
        },
        {
          "indexed": true,
          "internalType": "uint256",
          "name": "tokenId",
          "type": "uint256"
        }
      ],
      "name": "Transfer",
      "type": "event"
    },
    {
      "inputs": [
        {
          "internalType": "address",
          "name": "to",
          "type": "address"
        },
        {
          "internalType": "uint256",
          "name": "tokenId",
          "type": "uint256"
        }
      ],
      "name": "approve",
      "outputs": [],
      "stateMutability": "nonpayable",
      "type": "function"
    },
    {
      "inputs": [
        {
          "internalType": "address",
          "name": "owner",
          "type": "address"
        }
      ],
      "name": "balanceOf",
      "outputs": [
        {
          "internalType": "uint256",
          "name": "",
          "type": "uint256"
        }
      ],
      "stateMutability": "view",
      "type": "function"
    },
    {
      "inputs": [
        {
          "internalType": "uint256",
          "name": "tokenId",
          "type": "uint256"
        }
      ],
      "name": "getApproved",
      "outputs": [
        {
          "internalType": "address",
          "name": "",
          "type": "address"
        }
      ],
      "stateMutability": "view",
      "type": "function"
    },
    {
      "inputs": [
        {
          "internalType": "address",
          "name": "operator",
          "type": "address"
        }
      ],
      "name": "getPassportId",
      "outputs": [
        {
          "internalType": "uint256",
          "name": "",
          "type": "uint256"
        }
      ],
      "stateMutability": "view",
      "type": "function"
    },
    {
      "inputs": [
        {
          "internalType": "uint256",
          "name": "tokenId",
          "type": "uint256"
        }
      ],
      "name": "isAgentRevoked",
      "outputs": [
        {
          "internalType": "bool",
          "name": "",
          "type": "bool"
        }
      ],
      "stateMutability": "view",
      "type": "function"
    },
    {
      "inputs": [
        {
          "internalType": "uint256",
          "name": "tokenId",
          "type": "uint256"
        }
      ],
      "name": "isAgentVerified",
      "outputs": [
        {
          "internalType": "bool",
          "name": "",
          "type": "bool"
        }
      ],
      "stateMutability": "view",
      "type": "function"
    },
    {
      "inputs": [
        {
          "internalType": "address",
          "name": "owner",
          "type": "address"
        },
        {
          "internalType": "address",
          "name": "operator",
          "type": "address"
        }
      ],
      "name": "isApprovedForAll",
      "outputs": [
        {
          "internalType": "bool",
          "name": "",
          "type": "bool"
        }
      ],
      "stateMutability": "view",
      "type": "function"
    },
    {
      "inputs": [],
      "name": "name",
      "outputs": [
        {
          "internalType": "string",
          "name": "",
          "type": "string"
        }
      ],
      "stateMutability": "view",
      "type": "function"
    },
    {
      "inputs": [],
      "name": "owner",
      "outputs": [
        {
          "internalType": "address",
          "name": "",
          "type": "address"
        }
      ],
      "stateMutability": "view",
      "type": "function"
    },
    {
      "inputs": [
        {
          "internalType": "uint256",
          "name": "tokenId",
          "type": "uint256"
        }
      ],
      "name": "ownerOf",
      "outputs": [
        {
          "internalType": "address",
          "name": "",
          "type": "address"
        }
      ],
      "stateMutability": "view",
      "type": "function"
    },
    {
      "inputs": [
        {
          "internalType": "string",
          "name": "metadataURI",
          "type": "string"
        }
      ],
      "name": "registerAgent",
      "outputs": [
        {
          "internalType": "uint256",
          "name": "",
          "type": "uint256"
        }
      ],
      "stateMutability": "nonpayable",
      "type": "function"
    },
    {
      "inputs": [
        {
          "internalType": "address",
          "name": "operator",
          "type": "address"
        },
        {
          "internalType": "string",
          "name": "metadataURI",
          "type": "string"
        }
      ],
      "name": "registerAgentFor",
      "outputs": [
        {
          "internalType": "uint256",
          "name": "",
          "type": "uint256"
        }
      ],
      "stateMutability": "nonpayable",
      "type": "function"
    },
    {
      "inputs": [],
      "name": "renounceOwnership",
      "outputs": [],
      "stateMutability": "nonpayable",
      "type": "function"
    },
    {
      "inputs": [
        {
          "internalType": "uint256",
          "name": "tokenId",
          "type": "uint256"
        }
      ],
      "name": "revokeAgent",
      "outputs": [],
      "stateMutability": "nonpayable",
      "type": "function"
    },
    {
      "inputs": [
        {
          "internalType": "address",
          "name": "from",
          "type": "address"
        },
        {
          "internalType": "address",
          "name": "to",
          "type": "address"
        },
        {
          "internalType": "uint256",
          "name": "tokenId",
          "type": "uint256"
        }
      ],
      "name": "safeTransferFrom",
      "outputs": [],
      "stateMutability": "nonpayable",
      "type": "function"
    },
    {
      "inputs": [
        {
          "internalType": "address",
          "name": "from",
          "type": "address"
        },
        {
          "internalType": "address",
          "name": "to",
          "type": "address"
        },
        {
          "internalType": "uint256",
          "name": "tokenId",
          "type": "uint256"
        },
        {
          "internalType": "bytes",
          "name": "data",
          "type": "bytes"
        }
      ],
      "name": "safeTransferFrom",
      "outputs": [],
      "stateMutability": "nonpayable",
      "type": "function"
    },
    {
      "inputs": [
        {
          "internalType": "address",
          "name": "operator",
          "type": "address"
        },
        {
          "internalType": "bool",
          "name": "approved",
          "type": "bool"
        }
      ],
      "name": "setApprovalForAll",
      "outputs": [],
      "stateMutability": "nonpayable",
      "type": "function"
    },
    {
      "inputs": [
        {
          "internalType": "bytes4",
          "name": "interfaceId",
          "type": "bytes4"
        }
      ],
      "name": "supportsInterface",
      "outputs": [
        {
          "internalType": "bool",
          "name": "",
          "type": "bool"
        }
      ],
      "stateMutability": "view",
      "type": "function"
    },
    {
      "inputs": [],
      "name": "symbol",
      "outputs": [
        {
          "internalType": "string",
          "name": "",
          "type": "string"
        }
      ],
      "stateMutability": "view",
      "type": "function"
    },
    {
      "inputs": [
        {
          "internalType": "uint256",
          "name": "tokenId",
          "type": "uint256"
        }
      ],
      "name": "tokenURI",
      "outputs": [
        {
          "internalType": "string",
          "name": "",
          "type": "string"
        }
      ],
      "stateMutability": "view",
      "type": "function"
    },
    {
      "inputs": [
        {
          "internalType": "address",
          "name": "from",
          "type": "address"
        },
        {
          "internalType": "address",
          "name": "to",
          "type": "address"
        },
        {
          "internalType": "uint256",
          "name": "tokenId",
          "type": "uint256"
        }
      ],
      "name": "transferFrom",
      "outputs": [],
      "stateMutability": "nonpayable",
      "type": "function"
    },
    {
      "inputs": [
        {
          "internalType": "address",
          "name": "newOwner",
          "type": "address"
        }
      ],
      "name": "transferOwnership",
      "outputs": [],
      "stateMutability": "nonpayable",
      "type": "function"
    },
    {
      "inputs": [
        {
          "internalType": "uint256",
          "name": "tokenId",
          "type": "uint256"
        },
        {
          "internalType": "string",
          "name": "metadataURI",
          "type": "string"
        }
      ],
      "name": "updateMetadata",
      "outputs": [],
      "stateMutability": "nonpayable",
      "type": "function"
    },
    {
      "inputs": [
        {
          "internalType": "uint256",
          "name": "tokenId",
          "type": "uint256"
        }
      ],
      "name": "verifyAgent",
      "outputs": [],
      "stateMutability": "nonpayable",
      "type": "function"
    }
  ],
  "bytecode": "0x608060405234801561001057600080fd5b50336040518060400160405280601781526020017f4167656e74204964656e746974792050617373706f72740000000000000000008152506040518060400160405280600381526020016204149560ec1b815250816000908161007391906101b6565b50600161008082826101b6565b5050506001600160a01b0381166100b157604051631e4fbdf760e01b81526000600482015260240160405180910390fd5b6100ba816100c5565b506001600755610274565b600680546001600160a01b038381166001600160a01b0319831681179093556040519116919082907f8be0079c531659141344cd1fd0a4f28419497f9722a3daafe3b4186f6b6457e090600090a35050565b634e487b7160e01b600052604160045260246000fd5b600181811c9082168061014157607f821691505b60208210810361016157634e487b7160e01b600052602260045260246000fd5b50919050565b601f8211156101b157806000526020600020601f840160051c8101602085101561018e5750805b601f840160051c820191505b818110156101ae576000815560010161019a565b50505b505050565b81516001600160401b038111156101cf576101cf610117565b6101e3816101dd845461012d565b84610167565b6020601f82116001811461021757600083156101ff5750848201515b600019600385901b1c1916600184901b1784556101ae565b600084815260208120601f198516915b828110156102475787850151825560209485019460019092019101610227565b50848210156102655786840151600019600387901b60f8161c191681555b50505050600190811b01905550565b6116b6806102836000396000f3fe608060405234801561001057600080fd5b50600436106101585760003560e01c8063715018a6116100c3578063ba7550d41161007c578063ba7550d414610300578063c87b56dd14610313578063e985e9c514610326578063ef699bee14610339578063efa647e91461034c578063f2fde38b1461036f57600080fd5b8063715018a6146102a65780638da5cb5b146102ae5780639563f046146102bf57806395d89b41146102d2578063a22cb465146102da578063b88d4fde146102ed57600080fd5b80632d2a9585116101155780632d2a95851461022457806342842e0e1461023757806347bd1c491461024a57806353c8388e1461026d5780636352211e1461028057806370a082311461029357600080fd5b806301ffc9a71461015d57806306fdde0314610185578063081812fc1461019a578063095ea7b3146101c557806310a943cf146101da57806323b872dd14610211575b600080fd5b61017061016b3660046110e1565b610382565b60405190151581526020015b60405180910390f35b61018d6103ad565b60405161017c919061114b565b6101ad6101a836600461115e565b61043f565b6040516001600160a01b03909116815260200161017c565b6101d86101d3366004611193565b610468565b005b6102036101e83660046111bd565b6001600160a01b031660009081526009602052604090205490565b60405190815260200161017c565b6101d861021f3660046111d8565b610477565b61020361023236600461125e565b610507565b6101d86102453660046111d8565b6105c5565b61017061025836600461115e565b6000908152600b602052604090205460ff1690565b6101d861027b3660046112a0565b6105e5565b6101ad61028e36600461115e565b6106a2565b6102036102a13660046111bd565b6106ad565b6101d86106f5565b6006546001600160a01b03166101ad565b6101d86102cd36600461115e565b610709565b61018d6107b9565b6101d86102e83660046112ec565b6107c8565b6101d86102fb36600461133e565b6107d3565b6101d861030e36600461115e565b6107eb565b61018d61032136600461115e565b61089b565b610170610334366004611422565b610945565b610203610347366004611455565b610973565b61017061035a36600461115e565b6000908152600a602052604090205460ff1690565b6101d861037d3660046111bd565b610a4e565b60006001600160e01b03198216632483248360e11b14806103a757506103a782610a8c565b92915050565b6060600080546103bc9061148f565b80601f01602080910402602001604051908101604052809291908181526020018280546103e89061148f565b80156104355780601f1061040a57610100808354040283529160200191610435565b820191906000526020600020905b81548152906001019060200180831161041857829003601f168201915b5050505050905090565b600061044a82610adc565b506000828152600460205260409020546001600160a01b03166103a7565b610473828233610b15565b5050565b6001600160a01b0382166104a657604051633250574960e11b8152600060048201526024015b60405180910390fd5b60006104b3838333610b22565b9050836001600160a01b0316816001600160a01b031614610501576040516364283d7b60e01b81526001600160a01b038086166004830152602482018490528216604482015260640161049d565b50505050565b336000908152600960205260408120541561053557604051630ea075bf60e21b815260040160405180910390fd5b6007805460009182610546836114c9565b9190505590506105563382610c1b565b600081815260086020526040902061056f848683611537565b5033600081815260096020526040908190208390555182907f0d063c6022bff16d09991a9f91882ffa112f5fb2529136f65eb4c77bbd047e43906105b690889088906115f7565b60405180910390a39392505050565b6105e0838383604051806020016040528060008152506107d3565b505050565b336105ef846106a2565b6001600160a01b031614610616576040516359dc379f60e01b815260040160405180910390fd5b600083815260086020526040902061062f828483611537565b50827f459157ba24c7ab9878b165ef465fa6ae2ab42bcd8445f576be378768b0c4730983836040516106629291906115f7565b60405180910390a26040518381527ff8e1a15aba9398e019f0b49df1a4fde98ee17ae345cb5f6b5e2c27f5033e8ce79060200160405180910390a1505050565b60006103a782610adc565b60006001600160a01b0382166106d9576040516322718ad960e21b81526000600482015260240161049d565b506001600160a01b031660009081526003602052604090205490565b6106fd610c35565b6107076000610c62565b565b610711610c35565b6000818152600260205260409020546001600160a01b03166107465760405163aba4733960e01b815260040160405180910390fd5b6000818152600a602052604090205460ff161561077657604051630231faf760e31b815260040160405180910390fd5b6000818152600a6020526040808220805460ff191660011790555182917fcdeecfb48d8c6298680b7d041fcc31e123e9b5894df6c70241fe55550833421791a250565b6060600180546103bc9061148f565b610473338383610cb4565b6107de848484610477565b6105013385858585610d53565b6107f3610c35565b6000818152600260205260409020546001600160a01b03166108285760405163aba4733960e01b815260040160405180910390fd5b6000818152600b602052604090205460ff16156108585760405163905e710760e01b815260040160405180910390fd5b6000818152600b6020526040808220805460ff191660011790555182917ffff7a38bd0a2d198492b996b82c6bd083b224b0f43294f8a62fa6085f4d24ba491a250565b60606108a682610adc565b50600082815260086020526040902080546108c09061148f565b80601f01602080910402602001604051908101604052809291908181526020018280546108ec9061148f565b80156109395780601f1061090e57610100808354040283529160200191610939565b820191906000526020600020905b81548152906001019060200180831161091c57829003601f168201915b50505050509050919050565b6001600160a01b03918216600090815260056020908152604080832093909416825291909152205460ff1690565b600061097d610c35565b6001600160a01b038416600090815260096020526040902054156109b457604051630ea075bf60e21b815260040160405180910390fd5b60078054600091826109c5836114c9565b9190505590506109d58582610c1b565b60008181526008602052604090206109ee848683611537565b506001600160a01b038516600081815260096020526040908190208390555182907f0d063c6022bff16d09991a9f91882ffa112f5fb2529136f65eb4c77bbd047e4390610a3e90889088906115f7565b60405180910390a3949350505050565b610a56610c35565b6001600160a01b038116610a8057604051631e4fbdf760e01b81526000600482015260240161049d565b610a8981610c62565b50565b60006001600160e01b031982166380ac58cd60e01b1480610abd57506001600160e01b03198216635b5e139f60e01b145b806103a757506301ffc9a760e01b6001600160e01b03198316146103a7565b6000818152600260205260408120546001600160a01b0316806103a757604051637e27328960e01b81526004810184905260240161049d565b6105e08383836001610e7e565b6000828152600260205260408120546001600160a01b0390811690831615610b4f57610b4f818486610f84565b6001600160a01b03811615610b8d57610b6c600085600080610e7e565b6001600160a01b038116600090815260036020526040902080546000190190555b6001600160a01b03851615610bbc576001600160a01b0385166000908152600360205260409020805460010190555b60008481526002602052604080822080546001600160a01b0319166001600160a01b0389811691821790925591518793918516917fddf252ad1be2c89b69c2b068fc378daa952ba7f163c4a11628f55a4df523b3ef91a4949350505050565b610473828260405180602001604052806000815250610fe8565b6006546001600160a01b031633146107075760405163118cdaa760e01b815233600482015260240161049d565b600680546001600160a01b038381166001600160a01b0319831681179093556040519116919082907f8be0079c531659141344cd1fd0a4f28419497f9722a3daafe3b4186f6b6457e090600090a35050565b6001600160a01b038216610ce657604051630b61174360e31b81526001600160a01b038316600482015260240161049d565b6001600160a01b03838116600081815260056020908152604080832094871680845294825291829020805460ff191686151590811790915591519182527f17307eab39ab6107e8899845ad3d59bd9653f200f220920489ca2b5937696c31910160405180910390a3505050565b6001600160a01b0383163b15610e7757604051630a85bd0160e11b81526001600160a01b0384169063150b7a0290610d95908890889087908790600401611626565b6020604051808303816000875af1925050508015610dd0575060408051601f3d908101601f19168201909252610dcd91810190611663565b60015b610e39573d808015610dfe576040519150601f19603f3d011682016040523d82523d6000602084013e610e03565b606091505b508051600003610e3157604051633250574960e11b81526001600160a01b038516600482015260240161049d565b805160208201fd5b6001600160e01b03198116630a85bd0160e11b14610e7557604051633250574960e11b81526001600160a01b038516600482015260240161049d565b505b5050505050565b8080610e9257506001600160a01b03821615155b15610f54576000610ea284610adc565b90506001600160a01b03831615801590610ece5750826001600160a01b0316816001600160a01b031614155b8015610ee15750610edf8184610945565b155b15610f0a5760405163a9fbf51f60e01b81526001600160a01b038416600482015260240161049d565b8115610f525783856001600160a01b0316826001600160a01b03167f8c5be1e5ebec7d5bd14f71427d1e84f3dd0314c0f7b2291e5b200ac8c7c3b92560405160405180910390a45b505b5050600090815260046020526040902080546001600160a01b0319166001600160a01b0392909216919091179055565b610f8f838383611000565b6105e0576001600160a01b038316610fbd57604051637e27328960e01b81526004810182905260240161049d565b60405163177e802f60e01b81526001600160a01b03831660048201526024810182905260440161049d565b610ff28383611066565b6105e0336000858585610d53565b60006001600160a01b0383161580159061105e5750826001600160a01b0316846001600160a01b0316148061103a575061103a8484610945565b8061105e57506000828152600460205260409020546001600160a01b038481169116145b949350505050565b6001600160a01b03821661109057604051633250574960e11b81526000600482015260240161049d565b600061109e83836000610b22565b90506001600160a01b038116156105e0576040516339e3563760e11b81526000600482015260240161049d565b6001600160e01b031981168114610a8957600080fd5b6000602082840312156110f357600080fd5b81356110fe816110cb565b9392505050565b6000815180845260005b8181101561112b5760208185018101518683018201520161110f565b506000602082860101526020601f19601f83011685010191505092915050565b6020815260006110fe6020830184611105565b60006020828403121561117057600080fd5b5035919050565b80356001600160a01b038116811461118e57600080fd5b919050565b600080604083850312156111a657600080fd5b6111af83611177565b946020939093013593505050565b6000602082840312156111cf57600080fd5b6110fe82611177565b6000806000606084860312156111ed57600080fd5b6111f684611177565b925061120460208501611177565b929592945050506040919091013590565b60008083601f84011261122757600080fd5b50813567ffffffffffffffff81111561123f57600080fd5b60208301915083602082850101111561125757600080fd5b9250929050565b6000806020838503121561127157600080fd5b823567ffffffffffffffff81111561128857600080fd5b61129485828601611215565b90969095509350505050565b6000806000604084860312156112b557600080fd5b83359250602084013567ffffffffffffffff8111156112d357600080fd5b6112df86828701611215565b9497909650939450505050565b600080604083850312156112ff57600080fd5b61130883611177565b91506020830135801515811461131d57600080fd5b809150509250929050565b634e487b7160e01b600052604160045260246000fd5b6000806000806080858703121561135457600080fd5b61135d85611177565b935061136b60208601611177565b925060408501359150606085013567ffffffffffffffff81111561138e57600080fd5b8501601f8101871361139f57600080fd5b803567ffffffffffffffff8111156113b9576113b9611328565b604051601f8201601f19908116603f0116810167ffffffffffffffff811182821017156113e8576113e8611328565b60405281815282820160200189101561140057600080fd5b8160208401602083013760006020838301015280935050505092959194509250565b6000806040838503121561143557600080fd5b61143e83611177565b915061144c60208401611177565b90509250929050565b60008060006040848603121561146a57600080fd5b61147384611177565b9250602084013567ffffffffffffffff8111156112d357600080fd5b600181811c908216806114a357607f821691505b6020821081036114c357634e487b7160e01b600052602260045260246000fd5b50919050565b6000600182016114e957634e487b7160e01b600052601160045260246000fd5b5060010190565b601f8211156105e057806000526020600020601f840160051c810160208510156115175750805b601f840160051c820191505b81811015610e775760008155600101611523565b67ffffffffffffffff83111561154f5761154f611328565b6115638361155d835461148f565b836114f0565b6000601f841160018114611597576000851561157f5750838201355b600019600387901b1c1916600186901b178355610e77565b600083815260209020601f19861690835b828110156115c857868501358255602094850194600190920191016115a8565b50868210156115e55760001960f88860031b161c19848701351681555b505060018560011b0183555050505050565b60208152816020820152818360408301376000818301604090810191909152601f909201601f19160101919050565b6001600160a01b038581168252841660208201526040810183905260806060820181905260009061165990830184611105565b9695505050505050565b60006020828403121561167557600080fd5b81516110fe816110cb56fea2646970667358221220bec4161279e4f2fa4ace089e0f07816eae85f4d58035b4a61b104e861fb97f5f64736f6c634300081c0033",
  "linkReferences": {},
  "deployedLinkReferences": {}
}