{
  "_format": "hh-sol-artifact-1",
  "contractName": "Precompiles",
  "sourceName": "@fhenixprotocol/contracts/FheOS.sol",
  "abi": [
    {
      "inputs": [],
      "name": "Fheos",
      "outputs": [
        {
          "internalType": "address",
          "name": "",
          "type": "address"
        }
      ],
      "stateMutability": "view",
      "type": "function"
    }
  ],
  "bytecode": "0x60916037600b82828239805160001a607314602a57634e487b7160e01b600052600060045260246000fd5b30600052607381538281f3fe730000000000000000000000000000000000000000301460806040526004361060335760003560e01c806313d8d464146038575b600080fd5b603f608081565b6040516001600160a01b03909116815260200160405180910390f3fea2646970667358221220484c422a2a60ade38bef9380bbc074133bbea85689a97fe6a9b97c7ff746883164736f6c634300081c0033",
  "linkReferences": {},
  "deployedLinkReferences": {}
}